:10000000020EEC780C7C007D007BFF7A0379667E23
:10001000007F14120A951202CD1202E71201388FE6
:100020000B8E0A8D098C081200B620913FE47FC820
:10003000FEFDFCAB0BAA0AA909A808D3120B974036
:10004000DBE4FDEDC3940174809480501A12030325
:10005000E4FEEEC39414748094805008740C120370
:10006000280E80EE0D80DC12030C80B0209227E475
:100070007FC8FEFDFCAB0BAA0AA909A808D3120B86
:10008000975099E47F64FEFDFCA808C3120B9740CB
:100090008B1202858086209383E47F64FEFDFCAB97
:1000A0000BAA0AA909A808D3120B97400302001C47
:1000B0001202A902001C8F238E228D218C20E47F46
:1000C000E77E03FDFCAB23AA22A921A820D3120BB3
:1000D000974009E4F523F522F521F520E47B64FA45
:1000E000F9F8AF23AE22AD21AC20120AF78F24AF6E
:1000F00023AE22AD21AC20E47B64FAF9F8120AF7B2
:10010000AC00AD01AE02AF038F238E228D218C2077
:10011000E47B0AFAF9F8120AF78F25E47B0AFAF968
:10012000F8AF23AE22AD21AC20120AF7E525FD7C05
:10013000007A00AF240202145389F1E4F58CF58AA9
:10014000C2A1D2A1007F19DFFEC2A130A0FDD28CD6
:1001500020A0FDC28CAF8CE48F23F522F521F52081
:10016000AE22AD21AC207808120BA88F238E228DF1
:10017000218C20AF8AE4FCFDFEE5232FF523EE352C
:1001800022F522ED3521F521EC3520F520AF23AE07
:1001900022AD21FCE41209067B997ABB7996783C62
:1001A0001208001209448F238E228D218C2022EF09
:1001B000247FFF120334EDB40A00504D9001C3F8C0
:1001C0002828730201E10201E50201E90201ED02C2
:1001D00001F10201F50201F90201FD020201020230
:1001E000057F3080267F3180227F32801E7F3380E2
:1001F0001A7F3480167F3580127F36800E7F3780DD
:100200000A7F3880067F3980027F2E12033C7F02EE
:10021000120268228C268D27A9077F861203347F5D
:100220004D12033C7F021202687F851203347F4324
:1002300012033C7F021202687D057F051201AF7D2B
:100240002E7F041201AFAD037F031201AFAD277FF4
:10025000021201AFAD017F010201AFC2B68F807FF4
:1002600005120268D2B47F02EFD3940074809480A8
:100270004012E4FEEEC3947C7480948050030E80A0
:10028000F31F80E42278207C007A0379447F1412E3
:1002900002FAE4FEEEC39414748094805008742033
:1002A0001203280E80EE02030C78207C007A03797A
:1002B000587F0E1202FAE4FEEEC3940E748094800E
:1002C000500874201203280E80EE02031AC2B6D220
:1002D000B4C2B47F381203347F0C1203347F061289
:1002E00003347F010203347598527589207588693B
:1002F000758DFDD28ED2ACD2AF227D007BFF7E0009
:10030000120A957F247ED9DEFEDFFC22007F247E48
:10031000057DD3DDFEDEFCDFFA22007F0B7E827DD1
:100320006FDDFEDEFCDFFA222EF8E6FFC2998F9920
:100330003099FD22C2B512025BC2B422D2B51202BC
:100340005BC2B422FD00110101736F756E646BB462
:10035000F3D3DAD2BBC3D7D7FD000B0101D0A1D3B1
:10036000DAD2BBC3D7F3FD00110101736F756E6460
:0A0370006BB4F3D3DAC1BDC3D7C2EA
:10080000EC4D6011E8497017ED33EC3304600DE4F2
:10081000FCFFFEFD22E933E8330470F80209B01250
:10082000097B58046009E4CC248150062850090251
:1008300009BA2840030209B7C0E0EB4A7044B98006
:1008400006D0E0FB0209A6EF4E701CBD8008EBFF4E
:10085000EAFEE9FD80EBE98DF0A4FEE5F00208E98F
:10086000E9CDF9EAFEEBFFEF89F0A4FCE5F0CE89D3
:10087000F0A42EFFE435F0CD89F0A42DFEE435F090
:100880008067EF4E7005BD80D780C3EF8BF0A4ACBE
:10089000F0EE8BF0A42CFCE435F0F8EF8AF0A42CF9
:1008A000E5F038FCE433CB8DF0A42CFCE5F03BF80C
:1008B000EE8AF0A42CFCE5F038F8E433CF89F0A4FC
:1008C0002CFCE5F038CF3400CE89F0A42FFFE5F002
:1008D0003EFEE433C98DF0A42EFEE5F039CD8AF05A
:1008E000A42FFFE5F03EFEE43DFD33D0E0FB5007D2
:1008F0000BBB000F0209BAEC2CFCEF33FFEE33FE0A
:10090000ED33FD02099275F020800E75F010800520
:1009100075F0087D007E007F003392D530D503123C
:100920000B89EC334010EF33FFEE33FEED33FDEC7B
:1009300033FCD5F0ED22E5F0247EA2D513CC92E76E
:10094000CDCEFF22EDD2E7CD33EC3392D5248140DA
:1009500006E4FFFEFDFC22FCE4CFCECDCC24E0502B
:100960001174FF80EDC3CC13CCCD13CDCE13CECFFD
:1009700013CF0470F030D5DE020B89E9D2E7C9331A
:10098000E833F892D5EDD2E7CD33EC33FC5002B228
:10099000D522EC30E7100FBF000C0EBE00080DBDD5
:1009A00000040BEB6014A2D5EB13FCED92E7FD22E3
:1009B00074FFFCFDFEFF22E480F8A2D574FF13FC57
:1009C0007D80E480EFE709F608DFFA8046E709F268
:1009D00008DFFA803E88828C83E709F0A3DFFA8083
:1009E00032E309F608DFFA8078E309F208DFFA80DB
:1009F0007088828C83E309F0A3DFFA806489828A9D
:100A000083E0A3F608DFFA805889828A83E0A3F2A4
:100A100008DFFA804C80D280FA80C680D48069805A
:100A2000F28033801080A680EA809A80A880DA80E5
:100A3000E280CA803389828A83ECFAE493A3C8C532
:100A400082C8CCC583CCF0A3C8C582C8CCC583CC32
:100A5000DFE9DEE7800D89828A83E493A3F608DF6D
:100A6000F9ECFAA9F0EDFB2289828A83ECFAE0A383
:100A7000C8C582C8CCC583CCF0A3C8C582C8CCC5C4
:100A800083CCDFEADEE880DB89828A83E493A3F209
:100A900008DFF980CC88F0EF60010E4E60C388F06B
:100AA000ED2402B4040050B9F582EB2402B4040032
:100AB00050AF2323458223900A157375F008758281
:100AC00000EF2FFFEE33FECD33CDCC33CCC58233D8
:100AD000C5829BED9AEC99E58298400CF582EE9BDD
:100AE000FEED9AFDEC99FC0FD5F0D6E4CEFBE4CDFB
:100AF000FAE4CCF9A88222B800C1B90059BA002D95
:100B0000EC8BF084CFCECDFCE5F0CBF97818EF2F4D
:100B1000FFEE33FEED33FDEC33FCEB33FB10D7037C
:100B2000994004EB99FB0FD8E5E4F9FA227818EF25
:100B30002FFFEE33FEED33FDEC33FCC933C910D784
:100B4000059BE99A4007EC9BFCE99AF90FD8E0E491
:100B5000C9FAE4CCFB2275F010EF2FFFEE33FEED67
:100B600033FDCC33CCC833C810D7079BEC9AE89937
:100B7000400AED9BFDEC9AFCE899F80FD5F0DAE419
:100B8000CDFBE4CCFAE4C8F922C3E49FFFE49EFE67
:100B9000E49DFDE49CFC22EB9FF5F0EA9E42F0E927
:100BA0009D42F0E89C45F022E8600FEFC333FFEE72
:0B0BB00033FEED33FDEC33FCD8F122E6
:0C0EEC00787FE4F6D8FD75813302000326
:00000001FF
