:10000000020F7E780C7C007D007BFF7A0379A97E4D
:10001000007F14120A9512031012032A12017B8F1B
:100020000B8E0A8D098C08209154E41209067BF688
:100030007A28796478401208001209441200F1E429
:100040007FC8FEFDFCAB0BAA0AA909A808D3120BB6
:10005000E640C9E4FDEDC3940174809480501A1207
:100060000346E4FEEEC39414748094805008740C2C
:1000700012036B0E80EE0D80DC12034F809E2092E7
:1000800042AF0BAE0AAD09AC08E47B02FAF9F812F4
:100090000ABB1200F1E47FC8FEFDFCAB0BAA0AA963
:1000A00009A808D3120BE6400302001CE47F64FE9B
:1000B000FDFCA808C3120BE6500302001C1202C884
:1000C00002001C30930302001CAF0BAE0AAD09AC5A
:1000D000081200F9E47F64FEFDFCAB0BAA0AA90933
:1000E000A808D3120BE6400302001C1202EC020027
:1000F0001C8F0B8E0A8D098C088F238E228D218CEC
:1001000020E47FE77E03FDFCAB23AA22A921A820DF
:10011000D3120BE64009E4F523F522F521F520E49E
:100120007B64FAF9F8AF23AE22AD21AC20120B4666
:100130008F24AF23AE22AD21AC20E47B64FAF9F822
:10014000120B46AC00AD01AE02AF038F238E228DA1
:10015000218C20E47B0AFAF9F8120B468F25E47B08
:100160000AFAF9F8AF23AE22AD21AC20120B46E516
:1001700025FD7C007A00AF240202575389F1E4F593
:100180008CF58AC2A1D2A1007F19DFFEC2A130A0E6
:10019000FDD28C20A0FDC28CAF8CE48F23F522F51C
:1001A00021F520AE22AD21AC207808120BF78F2369
:1001B0008E228D218C20AF8AE4FCFDFEE5232FF5F5
:1001C00023EE3522F522ED3521F521EC3520F52001
:1001D000AF23AE22AD21FCE41209067B997ABB79EC
:1001E00016783B1208001209448F238E228D218C31
:1001F0002022EF247FFF120377EDB40A00504D90C8
:100200000206F828287302022402022802022C02A5
:10021000023002023402023802023C0202400202B0
:10022000440202487F3080267F3180227F32801E48
:100230007F33801A7F3480167F3580127F36800EA0
:100240007F37800A7F3880067F3980027F2E120335
:100250007F7F021202AB228C268D27A9077F861290
:1002600003777F4D12037F7F021202AB7F8512035B
:10027000777F4312037F7F021202AB7D057F051259
:1002800001F27D2E7F041201F2AD037F031201F211
:10029000AD277F021201F2AD017F010201F2C2B669
:1002A0008F807F051202ABD2B47F02EFD39400742B
:1002B0008094804012E4FEEEC3947C74809480505D
:1002C000030E80F31F80E42278207C007A03798774
:1002D0007F1412033DE4FEEEC394147480948050A6
:1002E00008742012036B0E80EE02034F78207C000E
:1002F0007A03799B7F0E12033DE4FEEEC3940E74E5
:100300008094805008742012036B0E80EE02035D0F
:10031000C2B6D2B4C2B47F381203777F0C1203770F
:100320007F061203777F0102037775985275892043
:10033000758869758DFDD28ED2ACD2AF227D007BDF
:10034000FF7E00120A957F247ED9DEFEDFFC2200AC
:100350007F247E057DD3DDFEDEFCDFFA22007F0BED
:100360007E827D6FDDFEDEFCDFFA222EF8E6FFC224
:10037000998F993099FD22C2B512029EC2B422D241
:10038000B512029EC2B422FD00110101736F756E99
:10039000646BB4F3D3DAD2BBC3D7D7FD000B010132
:1003A000D0A1D3DAD2BBC3D7F3FD00110101736F23
:0D03B000756E646BB4F3D3DAC1BDC3D7C260
:10080000EC4D6011E8497017ED33EC3304600DE4F2
:10081000FCFFFEFD22E933E8330470F80209B01250
:10082000097B58046009E4CC248150062850090251
:1008300009BA2840030209B7C0E0EB4A7044B98006
:1008400006D0E0FB0209A6EF4E701CBD8008EBFF4E
:10085000EAFEE9FD80EBE98DF0A4FEE5F00208E98F
:10086000E9CDF9EAFEEBFFEF89F0A4FCE5F0CE89D3
:10087000F0A42EFFE435F0CD89F0A42DFEE435F090
:100880008067EF4E7005BD80D780C3EF8BF0A4ACBE
:10089000F0EE8BF0A42CFCE435F0F8EF8AF0A42CF9
:1008A000E5F038FCE433CB8DF0A42CFCE5F03BF80C
:1008B000EE8AF0A42CFCE5F038F8E433CF89F0A4FC
:1008C0002CFCE5F038CF3400CE89F0A42FFFE5F002
:1008D0003EFEE433C98DF0A42EFEE5F039CD8AF05A
:1008E000A42FFFE5F03EFEE43DFD33D0E0FB5007D2
:1008F0000BBB000F0209BAEC2CFCEF33FFEE33FE0A
:10090000ED33FD02099275F020800E75F010800520
:1009100075F0087D007E007F003392D530D503123C
:100920000BD8EC334010EF33FFEE33FEED33FDEC2C
:1009300033FCD5F0ED22E5F0247EA2D513CC92E76E
:10094000CDCEFF22EDD2E7CD33EC3392D5248140DA
:1009500006E4FFFEFDFC22FCE4CFCECDCC24E0502B
:100960001174FF80EDC3CC13CCCD13CDCE13CECFFD
:1009700013CF0470F030D5DE020BD8E9D2E7C933CB
:10098000E833F892D5EDD2E7CD33EC33FC5002B228
:10099000D522EC30E7100FBF000C0EBE00080DBDD5
:1009A00000040BEB6014A2D5EB13FCED92E7FD22E3
:1009B00074FFFCFDFEFF22E480F8A2D574FF13FC57
:1009C0007D80E480EFE709F608DFFA8046E709F268
:1009D00008DFFA803E88828C83E709F0A3DFFA8083
:1009E00032E309F608DFFA8078E309F208DFFA80DB
:1009F0007088828C83E309F0A3DFFA806489828A9D
:100A000083E0A3F608DFFA805889828A83E0A3F2A4
:100A100008DFFA804C80D280FA80C680D48069805A
:100A2000F28033801080A680EA809A80A880DA80E5
:100A3000E280CA803389828A83ECFAE493A3C8C532
:100A400082C8CCC583CCF0A3C8C582C8CCC583CC32
:100A5000DFE9DEE7800D89828A83E493A3F608DF6D
:100A6000F9ECFAA9F0EDFB2289828A83ECFAE0A383
:100A7000C8C582C8CCC583CCF0A3C8C582C8CCC5C4
:100A800083CCDFEADEE880DB89828A83E493A3F209
:100A900008DFF980CC88F0EF60010E4E60C388F06B
:100AA000ED2402B4040050B9F582EB2402B4040032
:100AB00050AF2323458223900A1573E88FF0A4CC0E
:100AC0008BF0A42CFCE98EF0A42CFC8AF0EDA42C75
:100AD000FCEA8EF0A4CDA8F08BF0A42DCC3825F044
:100AE000FDE98FF0A42CCD35F0FCEB8EF0A4FEA92F
:100AF000F0EB8FF0A4CFC5F02ECD39FEE43CFCEA3C
:100B0000A42DCE35F0FDE43CFC2275F00875820082
:100B1000EF2FFFEE33FECD33CDCC33CCC58233C5C2
:100B2000829BED9AEC99E58298400CF582EE9BFE53
:100B3000ED9AFDEC99FC0FD5F0D6E4CEFBE4CDFAAE
:100B4000E4CCF9A88222B800C1B90059BA002DEC52
:100B50008BF084CFCECDFCE5F0CBF97818EF2FFFEA
:100B6000EE33FEED33FDEC33FCEB33FB10D7039992
:100B70004004EB99FB0FD8E5E4F9FA227818EF2F3F
:100B8000FFEE33FEED33FDEC33FCC933C910D7055E
:100B90009BE99A4007EC9BFCE99AF90FD8E0E4C97D
:100BA000FAE4CCFB2275F010EF2FFFEE33FEED33AD
:100BB000FDCC33CCC833C810D7079BEC9AE89940DA
:100BC0000AED9BFDEC9AFCE899F80FD5F0DAE4CD3C
:100BD000FBE4CCFAE4C8F922C3E49FFFE49EFEE400
:100BE0009DFDE49CFC22EB9FF5F0EA9E42F0E99D1E
:100BF00042F0E89C45F022E8600FEFC333FFEE338C
:0A0C0000FEED33FDEC33FCD8F122C9
:0C0F7E00787FE4F6D8FD75813302000393
:00000001FF
